:020000040800F2
:100000002805002001010008BF1A00080717000892
:10001000BD1A00080F020008E521000800000000DA
:100020000000000000000000000000003D1E00086D
:1000300091030008000000003D1D00083F1E00085D
:100040001B0100081B0100081B0100081B01000820
:100050001B0100081B0100081B0100081B01000810
:100060001B0100081B0100081B0100081B01000800
:100070001B0100081B0100081B0100081B010008F0
:100080001B0100081B0100081B0100081B010008E0
:100090001B0100081B0100081B0100081B010008D0
:1000A0001B0100081B0100081B0100081B010008C0
:1000B000A51E00081B0100081B0100081B01000809
:1000C0001B0100081B0100081B0100081B010008A0
:1000D0001B010008D92100081B0100081B010008B2
:1000E0001B0100081B0100081B010008DFF80CD0F1
:1000F00000F06CF800480047C926000828050020D9
:100100000648804706480047FEE7FEE7FEE7FEE7B1
:10011000FEE7FEE7FEE7FEE7FEE7FEE7A11E0008BA
:10012000ED000008202A04DB203A21FA02F0002129
:10013000704721FA02F3D040C2F1200291400843F7
:1001400019467047D2B201E000F8012B491EFBD2DC
:1001500070470022F6E710B513460A4604461946D2
:10016000FFF7F0FF204610BD2DE9F05F05460020A7
:1001700092469B4688460646814640241BE0284618
:10018000414647462246FFF7CDFF53465A46C01A1E
:10019000914110D311461846224600F029F82D1A35
:1001A00067EB01084F4622460120002100F020F8AD
:1001B00017EB00094E41201EA4F10104DFDC484684
:1001C00031462A464346BDE8F09F0000064C074DE5
:1001D00006E0E06840F0010394E807009847103417
:1001E000AC42F6D3FFF786FF18270008382700082F
:1001F000202A04DB203A00FA02F1002070479140E7
:10020000C2F1200320FA03F3194390407047FEE740
:10021000F8B53949522001F0E8FC374CE41E0028BB
:10022000A07067D1FE25A570A01D01F05AFCA0703A
:1002300000285FD1E01CA5708378427801782FA058
:1002400001F0D2FFA01DC178009183784278017837
:1002500030A001F0C9FF4FF47A76304600F00AF979
:10026000A01D01F039FDA070002843D1A570A31D89
:100270005A1D2178602001F069FCA07008B32AA003
:1002800001F0B2FF304600F0F5F81B4B2178DB1C83
:1002900003F10B02612001F059FCA07098B126A077
:1002A00001F0A2FF304600F0E5F8A078002821D147
:1002B000A5702549207801F072FCA07028B123A018
:1002C00011E025A0DCE728A0EAE72BA001F08CFFD5
:1002D0001D4D00242CA0295D01F086FF641CE4B2B2
:1002E000102CF7D31BA001F07FFF3046BDE8F8408B
:1002F00000F0C0B8F8BD000013000020BFA8B5C4CE
:10030000C0E0D0CDCEAAA3BA2578257825780D0AED
:1003100000000000BFA8BAC5A3BA25782D25782D06
:1003200025782D25780D0A0041C3DCD4BFD1E9D64C
:10033000A4CAA7B0DC0D0A0042C3DCD4BFD1E9D601
:10034000A4CAA7B0DC0D0A0014010020B6C1BFA8E2
:10035000CAA7B0DC0D0A000041C3DCD4BFD1E9D686
:10036000A4B3C9B9A60D0A0042C3DCD4BFD1E9D6F3
:10037000A4B3C9B9A60D0A0030C9C8C7F830BFE98F
:10038000444154413A00000025303278000000001A
:10039000704772B6FEE710B590F8211000220229CE
:1003A00005D00421816380F82020012010BD016860
:1003B0000B6823F00E030B6001680B6823F0010348
:1003C0000B6090F84030C46B012101FA03F36360C5
:1003D00080F8211080F82020104610BD10B590F84C
:1003E00021100024022903D00421816301243DE06F
:1003F00001680A6822F00E020A6001680A6822F0A9
:1004000001020A601A4A0168914201D1012121E0EA
:10041000174A1432914201D110211BE0144A2832AC
:10042000914201D1891515E0114A3C32914201D126
:1004300089140FE00E4A5032914202D14FF48031BC
:1004400008E00B4A6432914202D14FF4801101E07E
:100450004FF08071064A083A5160012180F821105E
:10046000002180F82010416B01B18847204610BD63
:100470000800024070B5044600F004F90546601C0F
:1004800002D004480078044400F0FCF8401BA0426D
:10049000FAD370BD000000202DE9F84FDFF8B891C5
:1004A0000024A9F1040B23460F2709F1040AABF13C
:1004B000040EC9E00125A5402A40AA427DD1674E1D
:1004C000D1F804C0ACEB0608B44532D014DCBCF162
:1004D000030F3AD009DCBCF1000F2AD0BCF1010FA8
:1004E0001CD0BCF1020F31D11DE0BCF1110F17D0AF
:1004F000BCF1120F2AD119E0B8F5881F19D006DC1B
:10050000B8F5803F15D0B8F5801F1FD111E0B8F5C0
:10051000001F0ED0B8F5041F18D10AE0CB6815E013
:10052000CB681B1D12E0CB6808330FE0CB680C339F
:100530000CE08B682BB1012B4FF0080303D0456111
:1005400004E0042302E0056100E00023FF2A01D853
:10055000064601E000F104064FEA840501D9A5F141
:100560002005D6F8008007FA05FC28EA0C0803FAF3
:1005700005F548EA0508C6F800804D68ED0062D52B
:10058000374DAE6946F00106AE61AD6924F0030651
:1005900005F001050095334D06EB050CDCF808501D
:1005A000A607360F07FA06F825EA0805DFF8B8802F
:1005B000404503D14FF0000817E044E0DFF8AC807D
:1005C000404502D14FF001080FE0DFF8A48040451C
:1005D00002D14FF0020808E0DFF89880404502D1D0
:1005E0004FF0030801E04FF0040808FA06F848EA63
:1005F0000508CCF808804D68D9F80060ED024D463A
:1006000001D5164300E096432E604D68DAF800608D
:10061000AD02554601D5164300E096432E604D6865
:10062000DBF80060AD035D4601D5164300E096435C
:100630002E604D68DEF80060ED03754601D5164367
:1006400000E096432E60641C0D682A46E5407FF466
:1006500031AFBDE8F88F0000080401400000111020
:10066000001002400000014000080140000C014061
:1006700000100140001401400AB1016170470904F3
:10068000FBE7000001488068704700000000002080
:1006900002488168027811448160704700000020A0
:1006A000074810B5016841F010010160032000F017
:1006B0006DF80F2000F006F800F024F8002010BDBF
:1006C0000020024070B50D4D04464FF47A71287831
:1006D000B1FBF0F00A490968B1FBF0F000F05FFCF3
:1006E00048B9102C07D200222146501E00F02EF8E7
:1006F00000206C6070BD012070BD00000000002073
:100700000C000020094808B5816941F001018161B0
:10071000816901F001010091C16941F08051C1611D
:10072000C06900F08050009008BD00000010024039
:10073000002809DB00F01F020121914040098000E0
:1007400000F1E020C0F8001170470000F0B40E4B3B
:100750001B680C46C3F30223C3F10705042D00D91F
:100760000425191D072901D2002300E0DB1E012604
:1007700006FA05F1491E214099409E40761E16401A
:100780003143F0BC01F040BD0CED00E0064900F043
:10079000070208684FF6FF03184040EA0220034AA8
:1007A00010430860704700000CED00E00000FA05FF
:1007B0002DE9F0470F46050061D0434E306800F048
:1007C0000700B84209D2306820F007003843306093
:1007D000306800F00700B84251D128683B4C8107CF
:1007E00012D5400703D5606840F4E0606060287867
:1007F000000703D5606840F4605060606068A968D5
:1008000020F0F000084360602878C00728D06868AE
:10081000012810D02168022810D0890700292EDA7B
:10082000616821F0030101436160FFF72BFF8046FF
:1008300041F288390DE021688903EFE78901EDE78E
:10084000FFF720FFA0EB0801494502D90320BDE8CE
:10085000F0876068696800F00C00B0EB810FEFD1A1
:10086000306800F00700B8420BD9306820F007006C
:1008700038433060306800F00700B84201D00120F2
:10088000E5E72878400705D56068E96820F4E0606E
:10089000084360602878000706D56068296920F45D
:1008A000605040EAC100606000F038F86168084AB2
:1008B000C1F30311515CC84006490860064800684E
:1008C000FFF700FF0020C2E70020024000100240B6
:1008D000002700080C0000200400002004480549FF
:1008E00000684968044AC1F30221515CC84070475E
:1008F0000C000020001002401027000804480549A1
:1009000000684968044AC1F3C221515CC84070477D
:100910000C00002000100240102700080E4A516809
:100920000E4801F00C03042B11D0082B0FD10C48FA
:10093000C1F38343C903C05C0AD55168084AC1F3B7
:100940004041921E515C054A5043B0FBF1F07047A4
:1009500004494843704700000010024000127A002A
:10096000F026000800093D002DE9F84F040070D082
:100970002078C04DC00749D06868C0F381000128C5
:1009800007D06868C0F38100022809D16868C003F5
:1009900006D52868800339D560680028E7D035E09F
:1009A0006068B0F5803F0BD010B1B0F5A02F11D02A
:1009B000286820F480302860286820F4802002E035
:1009C000286840F480302860606890B1FFF75AFED4
:1009D00006460AE0286840F480202860F0E700BF5F
:1009E000FFF750FE801B642873D828688003F7D572
:1009F0000CE0FFF747FE064605E000BFFFF742FEAA
:100A0000801B6428F0D828688003F7D420789A4E99
:100A100080074FF001094FF0000839D5686810F0E1
:100A20000C0F07D06868C0F38100022809D16868FC
:100A3000C00306D42868800714D52069012808D18E
:100A400010E02069B0B1C6F80090FFF71BFE074622
:100A500005E00AE1FFF716FEC01B0228C4D828688B
:100A60008007F7D52868616920F0F80040EAC100E6
:100A700028600DE0C6F80080FFF704FE074604E09A
:100A8000FFF700FEC01B022823D828688007F7D490
:100A9000207800072CD57948A169D9B1C0F8009019
:100AA000FFF7F0FD074604E0FFF7ECFDC01B02284E
:100AB0000FD8686A8007F7D571484FF4FA5100687B
:100AC000B0FBF1F0009000BF0098411E0091FAD2F7
:100AD0000EE080E0C0F80080FFF7D4FD074604E098
:100AE000FFF7D0FDC01B022875D8686A8007F7D4CD
:100AF0002078400760D5E8690027C00008D4E8697D
:100B000040F08050E861E869012700F080500090D3
:100B10005C480168C90513D40168834641F48071BB
:100B20000160FFF7AFFD824606E000BFFFF7AAFDB8
:100B3000A0EB0A0064284ED8DBF80000C005F5D50C
:100B4000E06801280AD008B1052813D0286A20F0EF
:100B500001002862286A20F0040002E0286A40F0C0
:100B600001002862E06841F2883B98B1FFF78AFDF6
:100B700082460BE0286A40F004002862EEE700BFDE
:100B8000FFF780FDA0EB0A0159455AD8286A800773
:100B9000F6D50CE0FFF776FD824605E0FFF772FD23
:100BA000A0EB0A0159454CD8286A8007F6D41FB13A
:100BB000E86920F08050E861E06988B36968C1F3B2
:100BC0008101022944D00228C6F8608004D0FFF7D2
:100BD00059FD044638E034E0FFF754FD074604E0D1
:100BE000FFF750FDC01B02282BD828688001F7D4DE
:100BF000206AB0F5803F05D16868A16820F4003014
:100C000008436860D4E908010843696821F4741155
:100C100008436860C6F86090FFF734FD044606E0BC
:100C200025E000BFFFF72EFD001B022809D8286829
:100C30008001F7D51BE000BFFFF724FD001B022851
:100C400002D90320BDE8F88F28688001F4D40EE0B3
:100C50000128F7D06868226A00F48031914204D1FB
:100C6000616A00F47010884201D00120EAE7002098
:100C7000E8E70000001002400000424280044242C7
:100C80000C0000200070004070B5040009D0606ABC
:100C9000002540B125616561A56294F8510040B11D
:100CA0000CE0012070BD6068B0F5827FF4D0E56192
:100CB000F2E784F85050204600F040F8022084F813
:100CC00051002068016821F040010160A08821895D
:100CD00000F4827001F404410843A18901F4006129
:100CE0000843217C01F002010843217D01F001014C
:100CF0000843218B01F400710843217F01F0380182
:100D0000084394F8201001F080010843218D01F47C
:100D10000051084321680860A069042101EA1040DD
:100D2000216848602068C16921F40061C16165657E
:100D3000012084F85100002070BD000030B585B05E
:100D40000024009401940294039400681549884299
:100D500025D11548C16941F48041C161C16901F4DF
:100D600080410491816941F00801816180690F4DE2
:100D700000F0080004904FF4204000900220019001
:100D80000320039069462846FFF786FB4FF4804016
:100D9000CDE90004694628460294FFF77DFB05B0C3
:100DA00030BD00000038004000100240000C01403F
:100DB0002DE9FF4F81B0044690F8500000260E9FA9
:100DC0001D4693464FF0010901280FD04FF0010A4C
:100DD00084F850A0FFF756FC804694F851006168F3
:100DE00001280DD0B1F5827F08D103E0022005B0C3
:100DF000BDE8F08FA16809B9042801D00226C9E036
:100E00000298002865D0BBF1000FFBD0002DF9D06F
:100E100094F85100042802D0052084F851000020E5
:100E20006065C4F838B0E587A58702992163E58637
:100E3000A5862064606420680168490603D40168BF
:100E400041F040010160E068B0F5006F606803D0D8
:100E5000F0B3012D47D081E008B1012D3CD1206BCA
:100E600021680088C860206B801C2063E08E401ED3
:100E7000E08631E02068816889070FD5E18E69B18D
:100E8000B9F1010F0AD1216B0988C160206B801C68
:100E90002063E08E401EE0864FF0000920688168E4
:100EA000C9070CD0E18F51B1C068A16B0880A06B5D
:100EB000801CA063E08F401EE0874FF00109FFF720
:100EC000E1FBA0EB0800B84206D3781C04D001E097
:100ED00009E05BE003265BE0E08E0028CAD1E08FEA
:100EE0000028C7D140E0206B216800780873206B90
:100EF000401C2063E08E401EE0862FE02068816861
:100F000089070FD5E18E69B1B9F1010F0AD1216BC3
:100F100009780173206B401C2063E08E401EE08640
:100F20004FF0000920688168C9070CD0E18F51B1EA
:100F3000C068A16B0870A06B401CA063E08F401ECE
:100F4000E0874FF00109FFF79DFBA0EB0800B842D6
:100F500002D3781C02D0BAE7002FB8D0E08E002868
:100F6000CCD1E08F0028C9D142463946204600F056
:100F7000F9FE18B10126202060650BE0A06818B9C1
:100F80002068C16880680090606D08B1012601E0AA
:100F900084F851A0002084F85000304627E710B5AF
:100FA000401EB0F1807F01D3012010BD4FF0E0243E
:100FB00060610F21601701F027F90020A061072070
:100FC0002061002010BD70477047000070B590F898
:100FD0003C20012A26D0012480F83C40022280F8DF
:100FE0003D2003685A689D6822F070060A68324303
:100FF0005A600D4B02689A4208D0B2F1804F05D07A
:101000000A4B9A4202D00A4B9A4204D1496825F011
:1010100080031943916080F83D40002180F83C1026
:10102000084670BD022070BD002C01400004004045
:101030000008004010B5040003D094F83D0010B142
:1010400007E0012010BD002084F83C00204600F09D
:101050001FF8022084F83D00211D206800F028FFC1
:10106000012084F8460084F83E0084F83F0084F8AC
:10107000400084F8410084F8420084F8430084F87A
:10108000440084F8450084F83D00002010BD0000B5
:1010900008B50068B0F1804F12D10A48C16941F02B
:1010A0000101C161C069002200F0010000901146F9
:1010B0001C20FFF74BFBBDE808401C20FFF738BBA6
:1010C00008BD00000010024070B5044690F83C00D6
:1010D0000025012817D0012684F83C60022084F8FE
:1010E0003D002068826822F0770222F47F4282600D
:1010F0000868502838D00DDC20284FD005DC90B38C
:10110000102811D14AE0022070BD302846D0402876
:101110000AD13BE060282FD070280DD0B0F5805F59
:1011200003D0B0F5005F12D0012584F83D600020A7
:1011300084F83C00284670BDCB68D1E901212068C5
:1011400000F0ECFE2068816841F0770109E0CB688F
:10115000D1E90121206800F0E1FE2068816841F4B6
:1011600080418160E1E719E0CA684968206800F0C1
:10117000E7FE5021206806E0CA684968206800F050
:10118000F0FE6021206800F0D3FECEE7CA6849680F
:10119000206800F0D5FE40212068F4E7226801466F
:1011A0001046F0E7704770B50446006801694FF0DB
:1011B0000005C943890715D4C168C943890711D4FB
:1011C000E91E0161012020772068806980072046A0
:1011D00002D0FFF7E7FF04E000F098F8204600F0A7
:1011E00096F8257720680169C943490717D4C16873
:1011F000C943490713D46FF004010161022020772D
:101200002068806910F4407F204602D0FFF7CAFFB3
:1012100004E000F07BF8204600F079F8257720689C
:101220000169C943090716D4C168C943090712D423
:101230006FF008010161042020772068C0698007F1
:10124000204602D0FFF7AEFF04E000F05FF8204632
:1012500000F05DF8257720680169C943C90617D4F5
:10126000C168C943C90613D46FF010010161082099
:1012700020772068C06910F4407F204602D0FFF735
:1012800091FF04E000F042F8204600F040F8257796
:1012900020680169C943C90708D1C168C943C907A2
:1012A00004D1891E0161204600F032F820680169EE
:1012B000C943090609D4C168C943090605D46FF0BA
:1012C000800101612046FFF77EFE20680169C94365
:1012D000490609D4C168C943490605D46FF04001E5
:1012E0000161204600F015F820680169C9438906AC
:1012F0000BD4C168C943890607D46FF0200101618E
:101300002046BDE87040FFF75FBE70BD7047704774
:101310007047704770477047F8B501680446086821
:10132000CA684B6910F00F0F4FF000055AD003F058
:10133000010602F49077374365D0C10705D0D10587
:1013400003D5616C41F001016164410705D5D907FE
:1013500003D0616C41F002016164810705D5D907B2
:1013600003D0616C41F004016164010707D502F00C
:101370002001314303D0616C41F008016164616C6C
:1013800000293BD0800604D5900602D5204600F007
:1013900029FE20684069616CC0F3801001F00801EB
:1013A000014320462BD000F0F6FD2068406940063E
:1013B00021D52068143050E8001F21F0400140E89A
:1013C0000012002AF5D1E06BA8B16D494163E06BD2
:1013D000FFF704F8002811D0E06B416B01B0BDE8C5
:1013E000F040084783060ED593060CD52046BDE88D
:1013F000F84000F0F7BD2046FFF78DFFF8BDFFF77E
:101400008AFF6564F8BD266B2023012E7CD1C606B9
:101410007AD5D60678D508684868009048694FF0B4
:101420000206400640D5E16B086840680004000CE5
:10143000E8D0A28D8242E5D9E085886920282DD0A8
:1014400020680C3050E8001F21F4807140E8001241
:10145000002AF5D12168143151E8000F20F0010075
:1014600041E80002002AF5D12068143050E8001F3E
:1014700021F0400140E80012002AF5D184F8423002
:10148000256320680C3050E8001F21F0100140E86F
:101490000012002AF5D1E06BFEF77DFF6663A08D98
:1014A000E18D401A81B22AE0A08DE18D401A81B20F
:1014B000E08D0028A6D00029A4D022680C3252E882
:1014C000000F20F4907042E80007002FF5D120684B
:1014D000143050E8002F22F0010240E80027002FCE
:1014E000F5D184F84230256320680C3050E8002F95
:1014F00022F0100240E80023002BF5D1666320465D
:10150000FFF708FFF8BDFFE705062BD5150629D51F
:1015100094F841002128F5D1A068B0F5805F01D191
:101520002069B0B1206A411C2162216800784860BE
:10153000E08C401E0004000CE084E3D12068C16808
:1015400021F08001C1602068C16841F04001C160A4
:10155000D8E7206A0088C0F308004860206A801C31
:101560002062E5E74006CDD55006CBD5CA682046B7
:1015700022F04002CA6084F8413000F0C3F8C1E7AD
:10158000871F000870B5040004D094F841000025BE
:1015900010B106E0012070BD84F84050204600F0F4
:1015A00023F8242084F841002068C16821F4005108
:1015B000C160204600F078FD2068016921F4904167
:1015C00001612068416921F02A0141612068C168F8
:1015D00041F40051C1606564202084F8410084F822
:1015E00042006563002070BD30B585B000240094D2
:1015F0000194029403940068184988422CD1184839
:10160000816941F480418161816901F480410491E3
:10161000816941F0040181618069124D00F004008C
:1016200004904FF40070009002200190032003907A
:1016300069462846FEF730FF2815CDE900046946C3
:1016400028460294FEF728FF002211462520FFF7C6
:101650007DF82520FFF76CF805B030BD003801405B
:10166000001002400008014070472DE9F84304468D
:1016700090F841001F4616460D46202802D0022051
:10168000BDE8F8837DB176B100206064212084F844
:101690004100FEF7F7FFA6848046E684A068B0F517
:1016A000805F02D003E00120EAE7206910B12E46F6
:1016B00000250EE000260CE08021204600F050FDC1
:1016C000A0B9AEB116F8010B21684860E08C401E4D
:1016D000E084E08C43464FF0000200970028EBD1F5
:1016E0004FF04001204600F03BFD30B10320C7E73A
:1016F00035F8020BC0F30800E6E7202084F841002B
:101700000020BDE77047FEE72DE9F0410E46074691
:1017100015460421052000F029F80021012000F0E1
:10172000FBF880210A2000F0EBF8002404E0395D8A
:10173000092000F0F1F8641CB442F8D30321012021
:1017400000F0EAF8084C052000F0BCF8641E01D057
:101750004007F8D5222000F0B5F82870212000F0CD
:10176000B1F86870BDE8F081A086010070B50C4644
:10177000054600F0A7F820EA04012846BDE87040BD
:1017800000F0CAB82DE9FF5F0027FE25DDF838A07C
:1017900016468B468146B8460C2805D0B9F10E0F87
:1017A00005D11227102001E077273020804647F02E
:1017B0008001022000F0B0F880210420FFF7D6FF5E
:1017C0000021012000F0A8F880210A2000F098F8FC
:1017D000002405E01BF80410092000F09DF8641CAB
:1017E000B442F7D34946012000F096F8B9F10C0F46
:1017F00003D180210D2000F083F8294E042000F051
:1018000061F80446761E04D0E00702D114EA080FFE
:10181000F4D080210D20FFF7A9FF36B1062000F09B
:1018200051F810F01B0F0CD0FE2580210C2000F089
:1018300067F80021012000F06FF804B02846BDE8E9
:10184000F09F00253C40E00700D0FF25B9F10C0FC8
:10185000EBD10A2000F036F804460C2000F032F8F4
:1018600010F007004FEAC40104D008390844AAF870
:10187000000001E0AAF8001024B1122C04D91224AF
:10188000002603E00124FBE7002605E0092000F024
:1018900019F803998855761CA642F7D3C5E70000CE
:1018A000E093040010B5064C012211032046FEF718
:1018B000E3FE20460122BDE810401021FEF7DCBE09
:1018C000000C014070B57E2101EA40000B4E40F053
:1018D00080044FF48055002229463046FEF7CCFEA6
:1018E000204600F02DFA002000F02AFA04460122DA
:1018F00029463046FEF7C0FE204670BD000C014070
:1019000070B50C460546FFF7DDFF40EA04012846A6
:10191000BDE87040AFF300802DE9F0410E467E2116
:1019200001EA40040A4F4FF4805500222946384608
:10193000FEF7A2FE204600F003FA304600F000FA5F
:1019400029463846BDE8F0410122FEF795BE000069
:10195000000C014070B586B000241C48009401942E
:1019600002940394816941F010018161816901F061
:1019700010010491816941F020018161816901F0C8
:1019800020010491816941F008018161816901F0C0
:1019900008010491816941F00401816180690C4E64
:1019A00000F0040041F2100504900122294630465F
:1019B000FEF762FE01200095CDE9010402200390AC
:1019C00069463046FEF768FD06B070BD0010024063
:1019D000000C0140104810B50E4901604FF48271AF
:1019E000416000218160C1604FF400720161C0E973
:1019F00005122022C0E90721416281620A21C162E9
:101A0000FFF742F9002803D0BDE81040FEF7C1BC43
:101A100010BD0000003800402C00002010B586B03A
:101A200000241748009401940294039404944FF006
:101A300080410594016041F61F41C0E9011442F262
:101A40001071C0E903148461FFF7F4FA08B1FEF7DE
:101A5000A0FC4FF48050009069460948FFF734FB22
:101A600008B1FEF796FC049404A905480594FFF715
:101A7000ADFA002801D0FEF78CFC06B010BD0000C6
:101A8000840000200C4810B50A4901604FF4E13190
:101A90004160002181600C22C160C0E904128161B3
:101AA000C161FFF76FFD002803D0BDE81040FEF7CD
:101AB00070BC10BD00380140CC000020FEE7FEE7FE
:101AC00003211420FFF752BE10B51420FFF7FAFED1
:101AD000800705D10321BDE810401420FFF710BF97
:101AE00010BD70B50646082188B000240846FFF7EF
:101AF0003DFE00210D20FFF70FFF80210E20FFF794
:101B000035FE93208DF8040020208DF8050006A8EE
:101B100001AB0090022219460C20FFF733FE0500AE
:101B20000DD1002101A8425C7254425C491C544012
:101B3000C9B20429F7D3405CA04200D0FE25802121
:101B40000E20FFF7DDFE08B0284670BD30B587B027
:101B50008DF804008DF80510002001A9145C0D1803
:101B6000401CC0B2AC700628F8D300200C181A5CD8
:101B7000401CC0B222720428F8D306A800900B467D
:101B80000C220E20FFF7FEFD040004D10820FFF711
:101B900099FE000700D4FE2407B0204630BD30B5C2
:101BA00087B00D4630218DF8041001AC8DF805008A
:101BB00002212046A21CFFF7A7FD06A801AB00905A
:101BC000042219460C20FFF7DDFD18B9BDF81810E6
:101BD000902902D0FE2007B030BD0023E15CE9541B
:101BE0005B1CDBB2102BF9D3F5E730B50C4605468C
:101BF000082187B00846FFF7B9FD07210D20FFF740
:101C00008BFE03211420FFF77BFE06A801AB00909A
:101C10008DF80450012219460C20FFF7B3FD00286F
:101C200009D1BDF81810102905D19DF804102170B4
:101C30009DF80510617007B030BD000010B5224C52
:101C4000012210212046FEF717FD0220FEF712FCAC
:101C5000002210212046FEF70FFD0220FEF70AFCAD
:101C6000012210212046FEF707FD0220FEF702FCAC
:101C70000F210120FFF750FE0220FEF7FBFB3D2164
:101C80001120FFF749FE1E212D20FFF745FE002100
:101C90002C20FFF741FE8D212A20FFF73DFE3E213B
:101CA0002B20FFF739FE40211520FFF735FEFFF707
:101CB00007FF0220FEF7DEFBFFF706FFBDE810403E
:101CC00002A000F091BA0000000C0140B3F5CABCBC
:101CD000BBAFCDEAB3C90A0010B588B093218DF827
:101CE000041070218DF8051000218DF80A1001AA4A
:101CF0005418435CA370445C9DF80A30491C63404F
:101D0000C9B28DF80A300429F2D3072101A8D21DE7
:101D1000FFF7FAFC08210846FFF728FD06A801ABEB
:101D20000090092219460C20FFF72CFD18B9BDF8C8
:101D30001810182900D0FE2008B010BD7047000010
:101D400001B582B00A2000900123044A02A9044888
:101D5000FFF72EF80148401E40780EBD110000200C
:101D60002C00002038B50B4600920446002280214A
:101D700000F008F8002804D0606D40F02000606595
:101D8000032038BD2DE9F8431E4691468846044697
:101D9000089DFEF777FC401B351AFEF773FC0746DB
:101DA00025480068C0F3CB30684338E0701C37D05A
:101DB000FEF768FCC01BA84203D215B1009860B3BF
:101DC0002CE02068416821F0E00141606068B0F5D6
:101DD000827F0BD1A068B0F5004F02D0B0F5806FC4
:101DE00004D12068016821F040010160A06AB0F5CB
:101DF000005F09D12068016821F40051016020686A
:101E0000016841F400510160012084F85100002074
:101E100084F850000320BDE8F8830025401E0090A0
:101E20002068816838EA010004D000214945BDD10D
:101E30000020F0E70121F9E70C0000207047FEF7D1
:101E400027BC30B58FB028216846FEF782F91421EF
:101E50000AA8FEF77EF901210804CDE9001000244C
:101E6000029402250491CDE907504FF4E010099047
:101E70006846FEF779FD08B172B6FEE70F20CDE99E
:101E80000A054FF48060CDE90C4002210AA80E94A7
:101E9000FEF78EFC002801D072B6FEE70FB030BD11
:101EA000704700000148FFF77EB900008400002061
:101EB000F0B50268164B174C174D4FF0804798420B
:101EC00005D0B84203D0A04201D0A84203D122F0ED
:101ED00070064A683243984205D0B84203D0A04207
:101EE00001D0A84203D122F44074CA6822434C694D
:101EF00022F08002224302608A68C2620A6882621B
:101F0000984201D10969016301214161F0BD0000DE
:101F1000002C0140000400400008004010B5846817
:101F200042EA032224F47F440A432243826010BD24
:101F3000826822F070020A4342F007018160704714
:101F400010B5036A046A24F001040462846924F071
:101F5000F00444EA021423F00A020A438461026294
:101F600010BD10B5036A046A24F010040462846989
:101F700023F0A00324F4704444EA023243EA01113E
:101F80008261016210BD10B5406A0021C185C18423
:101F9000FFF7C1F910BD01680C3151E8002F22F4A0
:101FA000907241E80023002BF5D10168143151E80B
:101FB000002F22F0010241E80023002BF5D1016B34
:101FC000012909D101680C3151E8002F22F01002DB
:101FD00041E80023002BF5D1202180F84210002198
:101FE0000163704708B590F84210222901D0022001
:101FF00008BD82684FF480539A4201D1016921B132
:10200000816A9A421BD04AB10AE00268816A52682A
:10201000C2F308020A80816A891C08E0026972B171
:102020000268526802F07F020A70816A491C81626C
:10203000C18D491E0904090CC18503D01BE002684B
:102040005268F1E70168CA6822F02002CA6001689C
:10205000CA6822F48072CA6001684A6922F00102EB
:102060004A61202180F8421000214163026B012A5D
:1020700003D0FFF7F9FA002008BD016301680C31B5
:1020800051E8002F22F0100241E80023002BF5D187
:1020900001680A68D20602D50A6849680091818DF4
:1020A000FFF738F9E7E7000070B5044600680169FA
:1020B000E26821F44051114301612169A06808439D
:1020C000616908432168CA6841F20C639A4302437C
:1020D000CA6020684169A26921F4407111434161DD
:1020E0001E492068884202D1FEF708FC01E0FEF795
:1020F000F5FB00EBC00101EB001260686421800079
:10210000B2FBF0F3B3FBF1F36FF018067343B2FBCD
:10211000F0F5B2FBF0F605EB8305322303EB051572
:10212000B5FBF1F5B6FBF1F605F0F00505EB06158C
:10213000B2FBF0F6B2FBF0F0B0FBF1F06FF018027A
:10214000504306EB800003EB0010B0FBF1F0216878
:1021500000F00F002844886070BD00000038014086
:102160002DE9F041984617460E460446069D27E0A5
:10217000681C25D02DB1FEF785FAA0EB0800A84217
:102180001ED920680C3050E8001F21F4D07140E8BF
:102190000012002AF5D12068143050E8001F21F009
:1021A000010140E80012002AF5D1202084F8410006
:1021B00084F84200002084F840000320BDE8F0814C
:1021C0002068006836EA000004D00020B842CFD072
:1021D0000020F3E70120F9E70148FFF79DB8000070
:1021E000CC000020FEE700000FB4054B10B503A99A
:1021F000044A029800F028F810BC5DF814FB0000B7
:10220000AD260008280000200907090E002804DB7D
:1022100000F1E02080F80014704700F00F0000F19A
:10222000E02080F8141D704702E008C8121F08C1A2
:10223000002AFAD170477047002001E001C1121F47
:10224000002AFBD1704700002DE9FF4F8DB00F46EB
:102250000546002606E025280BD0DDE90F12904741
:102260006D1C761C28780028F5D111B03046BDE8E9
:10227000F08F0024A246A1460122EC4900E004436D
:1022800015F8013F203B02FA03F00842F7D1287805
:102290002A2810D06FF02F022878A0F130010929E8
:1022A00014D80AEB8A0102EB410144F0020400EB6E
:1022B000010A6D1CF0E701CF5FEA000A03D544F480
:1022C0000054CAF1000A44F002046D1C28782E283C
:1022D00017D115F8010F44F004042A280ED06FF02E
:1022E0002F022878A0F1300109290AD809EB8901C9
:1022F00002EB410100EB01096D1CF2E757F8049B6A
:102300006D1C28786C280FD006DC4C2817D0682864
:102310000DD06A2814D104E0742810D07A280FD187
:102320000DE044F400140AE044F4801401E044F4A5
:1023300040146978814202D104F580146D1C6D1C33
:102340002A786E2A1FD00CDC632A31D004DC002AE4
:102350008BD0582A11D1A3E0642A68D0692A0CD105
:1023600065E0732A2ED004DC6F2A73D0702A04D162
:102370009BE0752A6FD0782A6ED01046DDE90F12E7
:102380009047761C50E1C4F30250022806D003287F
:1023900009D0042801CF09D0066045E101CFF1172B
:1023A000C0E9006140E101CF06803DE106703BE1FC
:1023B00017F8040B8DF8000000208DF80100EB46A3
:1023C000012003E057F804BB4FF0FF3061074FF0E6
:1023D000000102D40DE008F10101884649450FDAF9
:1023E0008045F8DB1BF808100029F4D108E008F15B
:1023F000010188468142FADB1BF808100029F6D15A
:10240000DDE90F23AAEB08008146214600F036F9EA
:10241000304400EB080604E0DDE90F121BF8010B65
:102420009047B8F10108F7D221464846F7E00A2163
:10243000C4F302534FF0000B0891022B04D001CFDC
:10244000C117032B09D00AE0FF1D27F00707F7E8A3
:10245000020108E032E01FE020E000B2C117042BC7
:1024600001D140B2C117031E71F1000307DA4FF02A
:10247000000CD0EB0C006CEB01012D2302E02305D6
:1024800004D52B238DF82430012303E0E30701D08A
:102490002023F7E7984658E00A2110E010210EE0CB
:1024A00010204FF0000B08900CE010214FF0000BB3
:1024B00044F004044FF00809089103E008214FF0AC
:1024C000000B0891C4F30253022B04D001CF00216A
:1024D000032B06D006E0FF1D27F00707F7E80201EF
:1024E00003E080B2042B00D1C0B24FF000082307F4
:1024F0002BD5702A07D0DDF820C08CF0100C5CEAD8
:102500000B0C05D00EE040238DF82430012308E0A9
:1025100050EA010306D030238DF824308DF82520B1
:1025200002239846DDF820C08CF0080C5CEA0B0C06
:102530000BD150EA010301D1630706D530238DF892
:1025400024304FF00108A9F10109582A04D038A21B
:102550000B9208AA0A920BE03AA2F9E75B46089AA6
:10256000FDF702FE0B9B9B5C0A9A521E0A921370A7
:1025700050EA0102F2D10A98ADEB000000F1200B05
:10258000600702D524F4803401E04FF00109D945F9
:1025900002DDA9EB0B0000E0002000EB0B01414441
:1025A0000890AAEB010AE00306D4DDE90F232146D7
:1025B000504600F063F806444FF0000908E009A90E
:1025C00011F80900DDE90F12904709F10109761CA5
:1025D000C145F4DBE0030CD5DDE90F23214650466D
:1025E00000F04CF8064404E0DDE90F12302090477B
:1025F000761C0899481E08900029F5DC08E00A9826
:102600000A990078491C0A91DDE90F129047761C5F
:10261000BBF10001ABF1010BF1DC21465046DDE9D5
:102620000F2300F019F806446D1C1BE60928010071
:102630003031323334353637383961626364656638
:1026400000000000303132333435363738394142FA
:1026500043444546000000002DE9F04104460025B2
:102660001E461746880404D405E039462020B047AA
:102670006D1C641EF9D52846BDE8F0812DE9F041B6
:10268000044600251E469046C80301D5302700E0C9
:102690002027880404D505E041463846B0476D1C24
:1026A000641EF9D52846BDE8F081000038B504461F
:1026B0008DF800000223012269460248FEF7D5FF8B
:1026C000204638BDCC000020FDF7EAFFFFF7B9FB3C
:1026D000FFF740F9FFF7D6F9FFF77CF9FFF79EF90E
:1026E000FFF7E0F8FFF7AAFAFDF792FDFCE7010219
:1026F00002030405060708090A0B0C0D0E0F101043
:1027000000000000000000000102030406070809A1
:102710000000000001020304382700080000002028
:102720002C00000028220008642700082C0000204C
:10273000FC04000038220008010000001000000026
:10274000000000000024F400000000000000000071
:10275000000000FFFFFFFFFFFFFFFFFFFFFFFF0085
:042760000000000075
:04000005080000ED02
:00000001FF
